:1000000014C021C020C01FC01EC01DC01CC01BC00A
:100010001AC019C018C017C016C015C014C084C0BB
:100020009EC011C010C00FC00EC011241FBECFED66
:10003000CDBF10E0A0E6B0E001C01D92A838B10726
:10004000E1F702D015C1DCCF1F9385E522D09FE0F8
:1000500088E10FB6F894A89581BD0FBE91BD789444
:100060005AD08823A1F044D0882319F0813069F454
:1000700002C083E00BC03CD0182F80FF02C084E197
:1000800026D011FF04C088E001C082E420D0A895EA
:10009000E7CF1092730010927200109285001092B8
:1000A00084008093600087B3806A87BBC79AC59A33
:1000B000BD9888EA8DB980EF8EB90895909184003B
:1000C0008091850020E0981321E0822F0895282F49
:1000D000909184009F5F9F70809185009817E1F355
:1000E000E92FF0E0EC58FF4F2083909384000895AF
:1000F00090917200809173009817D1F380917300F2
:100100008F5F8F7080937300E0917300F0E0EE5981
:10011000FF4F80810895909172008091730020E0DC
:10012000981321E0822F08951F920F920FB60F921D
:1001300011248F9310926100BD98B79B02C0B59BAC
:10014000FCCFB59902C088EF01C088EA8DB980EF75
:100150008EB98F910F900FBE0F901F9018951F9220
:100160000F920FB60F9211242F933F934F935F93EB
:100170006F937F938F939F93AF93BF93EF93FF936F
:1001800080916100823009F442C0833030F48823CA
:1001900061F0813009F05BC01FC08430F1F1843020
:1001A000C0F0853009F053C03EC08FB1882331F0D4
:1001B0008FB1869590916000891731F5E0918600A6
:1001C000F0918700309709F00995789B39C081E05C
:1001D00038C08FB18823C1F490918400809185004C
:1001E000981791F0809185008F5F8F7080938500C4
:1001F000E0918500F0E0EC58FF4F80818FB982E0FC
:1002000080936100BD9A0DC088EA8DB90AC083E071
:1002100080936100BD981FB818C085E0809361008D
:10022000BD9880E713C0809172008F5F8F708093BC
:100230007200E09172008FB1F0E0EE59FF4F8083C1
:1002400084E0809361001FB8BD9A8EE78EB9FF915C
:10025000EF91BF91AF919F918F917F916F915F913E
:100260004F913F912F910F900FBE0F901F901895B7
:04027000F894FFCF30
:00000001FF
